:10000000B9C000000C948D0A0C94F50A0C94B70A40
:10001000E1C000000C942F0BDDC00000DBC000002D
:10002000D9C00000D7C00000D5C00000D3C0000078
:10003000D1C00000CFC00000CDC0000022C200002F
:10004000C9C00000C7C00000C5C00000C3C0000098
:10005000C1C000000C945C0ABDC00000BBC0000021
:10006000B9C000000C94B50C0C94E40CB3C00000B3
:10007000B1C00000AFC00000ADC00000ABC00000C8
:10008000A9C00000A7C00000A5C00000A3C00000D8
:10009000A1C000009FC000009DC000009BC00000E8
:1000A00099C0000097C0000095C0000093C00000F8
:1000B00091C000008FC000008DC000008BC0000008
:1000C00089C0000087C0000085C000000C94120D9C
:1000D0000C94410D7FC000000C946F0D0C949E0D8C
:1000E00079C000009504C9045D057D057D057D0589
:1000F0007D057D057D057D057D057D057D057D05F0
:100100007D057D057D057D057D057D057D057D05DF
:100110007D057D057D057D057D057D057D057D05CF
:100120007D057D057D057D057D057D057D057D05BF
:100130007D057D057D057D057D057D057D057D05AF
:100140007D057D057D057D057D0553057D057D05C9
:100150007D051305490534056F057D0543053D05FE
:1001600030057D057D052E05FD047D057D057D059C
:100170007605580B11241FBECFEFD1E2DEBFCDBFF5
:1001800000E00CBF12E0A0E0B2E0E4E7F0E200E043
:100190000BBF02C007900D92A230B107D9F723E040
:1001A000A2E0B2E001C01D92A13CB207E1F710E06D
:1001B000CAEBD0E000E006C021970109802FFE01C4
:1001C0000E943010C93BD10780E00807A9F7BDD2D3
:1001D0000C94381015CFFC01168A178A108E118ED8
:1001E000178E168E1182108211A210A213A212A2D3
:1001F000089585B5856085BD8BE987BDEEE6F0E0A5
:10020000808182608083A99A16BC0895E9E6F0E0B7
:10021000808182608083E89AE09A0895CF93DF938B
:10022000EC0150980898F2DFCE01E3DFDF91CF9127
:100230000895FC01009B1CC086899789A08DB18D13
:100240000197A109B109868B978BA08FB18F828D01
:10025000938DA48DB58D0197A109B109828F938FDC
:10026000A48FB58F868D978D0197978F868F089570
:1002700000991BC086899789A08DB18D0196A11D1B
:10028000B11D868B978BA08FB18F828D938DA48D9E
:10029000B58D0196A11DB11D828F938FA48FB58F4F
:1002A000868D978D0196978F868F0895CF93DF93D4
:1002B000EC016E8D7F8D072E000C880B990B0E9430
:1002C000190F21E830E840E85AE30E94CD0F20E002
:1002D00030E044EB53E40E94CD0F0E94E60E798398
:1002E0006883CB01DF91CF910895CF92DF92EF9297
:1002F000FF920F931F93FC0102851385248535859A
:1003000006871787208B318BC680D780E084F184E5
:10031000C286D386E486F5864281538164817581E5
:10032000468357836087718786899789A08DB18DB1
:1003300082839383A483B583480F591F6A1F7B1F51
:10034000D701C601840F951FA61FB71F800F911FED
:10035000A21FB31FB595A79597958795B595A795B6
:1003600097958795828B938BA48BB58B168A178A6A
:10037000108E118E1F910F91FF90EF90DF90CF9014
:1003800008956C9809986C98749A0998119AEAE6FD
:10039000F0E0808182608083EC9AE49A0895FC0109
:1003A00011821082EECF0895CF93DF93EC01688124
:1003B0007981072E000C880B990B0E94190F20E001
:1003C00030E044E353E40E947E0E20E030E044EB52
:1003D00053E40E94CD0F0E94E60E7F836E83CB0113
:1003E000DF91CF910895249A279A259AE0E8F0E0CA
:1003F000808182688083E1E8F0E080818A61808387
:1004000089EF90E0909387008093860008952C9A5E
:100410002F9808952C982F9A08952C9A2F9A10921D
:1004200089001092880008950F931F93CF93DF9354
:100430008C01EB011C161D060CF4E9DFC93FD10548
:1004400044F4DD2344F4D195C195D109C801E2DF1C
:1004500002C0C9EFD0E0D0938900C0938800DF913B
:10046000CF911F910F910895CF93DF93EC01BBDFE4
:10047000CE01D3DF60E070E0CE01D6DFDF91CF9117
:1004800008951F920F920FB60F9211248F939F938E
:10049000AF93BF938091EE029091EF02A091F00292
:1004A000B091F1020196A11DB11D8093EE029093CF
:1004B000EF02A093F002B093F1028091EA029091D2
:1004C000EB02A091EC02B091ED020396A11DB11DCB
:1004D0008093EA029093EB02A093EC02B093ED02BA
:1004E0008091EA029091EB02A091EC02B091ED02B2
:1004F0008D379105A105B10538F18091EA029091FF
:10050000EB02A091EC02B091ED028D579109A10987
:10051000B1098093EA029093EB02A093EC02B093AE
:10052000ED028091EE029091EF02A091F002B09165
:10053000F1020196A11DB11D8093EE029093EF028E
:10054000A093F002B093F102BF91AF919F918F9170
:100550000F900FBE0F901F9018952FB7F8946091D1
:10056000EE027091EF028091F0029091F1022FBFA4
:100570000895E1EBF0E0808184608083E0E7F0E0C3
:100580008081816080831092B200089581E0809321
:10059000E00280ED92E09093490280934802089532
:1005A0005198599AE9E6F0E0808180628083EA9A66
:1005B000E29A089552985A9AE9E6F0E080818860BC
:1005C0008083E99AE19A0895EBDFF4DF84ED92E00D
:1005D0000E94BA0B80EB92E021DE85ED92E044DFD1
:1005E00088EA92E0CECE0895CF93DF9378944A992B
:1005F00008C064EC7FEF84ED92E00E949A0B4A9B66
:10060000F8CFC0EBD2E01F8E1E8E84ED92E00E94E8
:100610008D0B10921A02109219021A8E1B8E1C8ECC
:100620001D8EE9E7F2E016A615A68E8D9F8D90939C
:100630007802809377021092000215A216A217A2E8
:1006400010A6158E168E178E10A211A212A213A23A
:1006500014A2DF91CF910895CF93DF9378944B99B3
:1006600008C064EC7FEF84ED92E00E949A0B4B9BF4
:10067000F8CFC0EBD2E01F8E1E8E84ED92E00E9478
:100680008D0B10921A02109219021A8E1B8E1C8E5C
:100690001D8EE9E7F2E016A615A6109278021092D8
:1006A00077021092000215A216A217A210A611A29C
:1006B00012A213A214A2158E168E178E10A281E01C
:1006C0008093D9028091DB02811110C08091D60203
:1006D00081110CC081E08093D6023FDF6093150248
:1006E000709316028093170290931802DF91CF91B6
:1006F000089581E08093E2021092E4021092E302F6
:1007000020E330E030930F0220930E028093E70243
:10071000809300028093D80280911202909113027C
:100720009093A7028093A60210921A0210921902C7
:100730001092CA021092CB021092CC021092CD02FB
:100740001092DA02469A409A0895CF93DF93CDB77C
:10075000DEB72F970FB6F894DEBF0FBECDBFEAE02D
:10076000F1E0808181608083EBE0F1E08081816055
:1007700080839A9AA298989AA0983E9A389A469A14
:10078000409A22DFF6DE89E792E00E94FF0BE9E75C
:10079000F2E00F2E412C512CF9E76F2EF3EC7F2E57
:1007A000F02D458A568A678A708E0F2E812C912CE7
:1007B000F9E7AF2EF3E4BF2EF02D818A928AA38A47
:1007C000B48A0F2EF6E6CF2EDC2CF6E0EF2EF1E405
:1007D000FF2EF02D0AEB19E42CEC3EE343E353E348
:1007E00063E870E4CF010E94210C8AE492E00E9449
:1007F000FF0B0F2EFAE42F2EF2E03F2EF02DF10129
:10080000458A568A678A708E818A928AA38AB48AB8
:100810000F2EFBE1CF2EFFE2DF2EFBE0EF2EF1E407
:10082000FF2EF02D0AE017ED23EA3DE349E25CE5F7
:100830006FE570E4C1010E94210C8BE192E0DFD7EB
:10084000EBE1F2E0458A568A678A708E818A928A45
:10085000A38AB48A0F2EC12CD12CF0E9EF2EF1E43B
:10086000FF2EF02D00E010E0980140E050E060ED38
:1008700071E4CF01E6D7789489E190E00E94CC0D35
:100880008FE39CE90197F1F700C00000ADDE8FE037
:1008900090E0F10196A785A784EC9FEF90930F025B
:1008A00080930E0282EE9FEF9093130280931202C8
:1008B000FFEF29E638E1F15020403040E1F700C079
:1008C000000046984098412C512C32011D821B8219
:1008D0001B8618861E821A821F821E861F861C8215
:1008E0001A861D8619861C864FEF4983212C312CD0
:1008F0000F2EF9E7AF2EF2E0BF2EF02D0F2EFBE109
:100900008F2EF2E09F2EF02D0E94E50D80931402B1
:1009100090E0FC01F197E734F10508F0EEC088277C
:10092000EE58FF4F8F4F0C9430108FEF9FE0E7E2AF
:1009300081509040E040E1F700C00000F1E0F0930A
:10094000E4021092E3021092E20222EC3FEF3093B5
:100950000F0220930E02F093E702F0930002109230
:10096000E002F093E6028091120290911302F501E9
:1009700096A785A710921A02109219021092CA0225
:100980001092CB021092CC021092CD02469A409A5D
:10099000B4C0FFEF23ED30E3F15020403040E1F7E9
:1009A00000C0000041E04093E3021092E402109284
:1009B000E2021092E00282EC9FEF90930F0280938C
:1009C0000E024093E702409300024093E6028091BA
:1009D000120290911302F50196A785A710921A02B0
:1009E000109219021092CA021092CB021092CC02FD
:1009F0001092CD02469A409A80C01092E702F1E030
:100A0000F0930002F50116A615A684ED92E085D6B6
:100A1000109213021092120210921A0210921902EE
:100A20001092E6026AC00F2EF8E6CF2EF1E9DF2E13
:100A3000F9EAEF2EF0E4FF2EF02D00E010E098012F
:100A40004EEA57E469EE70E48AE492E0FAD6EBE00D
:100A5000F1E080818E7F8083FFDD4FC097DD4DC048
:100A6000F1E0F093DF0249C021E02093DC02209303
:100A7000DE021D8231E03B8340C0EBE0F1E080818B
:100A8000816080833AC0EBE0F1E080818E7F8083DB
:100A900034C080910E0290910F02019690930F0244
:100AA00080930E022AC080910E0290910F0201974E
:100AB00090930F0280930E0220C027E330E0309322
:100AC00013022093120231E03093D8023093DB02FC
:100AD0003093DE0241E04B8381E089830EC0E8EA77
:100AE000F2E011821082F1E0FD8307C08091E502FF
:100AF000811103C021E02093E10210921402809141
:100B0000D6028823B9F029DD009115021091160252
:100B10002091170230911802DC01CB01801B910B50
:100B2000A20BB30B8C3B9240A105B10518F0A29A21
:100B30001092D6028091DF02882301F14F8141118A
:100B4000CEC38A8181111AC09E81911117C0E88598
:100B5000E11114C0FB85F11111C0A298FEDC2B013C
:100B60003C01BDC3A09A1092DF028091E102811185
:100B70000EC021E02A8331E03F836BC08091E10207
:100B8000882309F466C04A81442389F002C081E0C9
:100B90008F839E819111B3C3E885E11121C0FB854C
:100BA000F11121C0A29AD9DC2B013C01A8C32E81EE
:100BB0002223F1F0D2DCDC01CB0184199509A609CE
:100BC000B70984389340A105B10580F0EBE0F1E06E
:100BD000808181608083C1DC2B013C011E820BC0BF
:100BE000F1E0FA8305C021E02A8302C031E03E83B0
:100BF00048854423A1F0B1DCDC01CB0184199509BF
:100C0000A609B709883C9105A105B10530F0A09867
:100C1000A4DC2B013C01188605C081E088879B85F8
:100C20009923B9F09ADCDC01CB0184199509A60956
:100C3000B70984369105A105B10548F0A298109234
:100C4000E1021B8618861E821A821F8202C0E1E022
:100C5000EB8788EA92E0A8DB99231CF491958195B3
:100C60009109803D924094F085ED92E0D6DBE8EA70
:100C7000F2E011821082F40116A615A611A212A2AA
:100C800013A214A2158E168E178E10A2FD81F111DB
:100C90007DDC8091DC02882311F12B81222321F05D
:100CA00075DC5BDC2B013C018091DE028823A1F026
:100CB00054DCDC01CB0184199509A609B709803DF4
:100CC0009740A105B10550F0A2981092DE0241E0D4
:100CD0004093D7021B8208C01B8201C01B828091F7
:100CE000D702882309F4A8C08C81811114C09C8587
:100CF000911114C0E985E11125C0FA85F11122C0D6
:100D00002D8521111FC03E8531111CC08091DD024F
:100D1000811118C0F7C24C854423A1F01EDCDC0110
:100D2000CB0184199509A609B70980329340A10522
:100D3000B10530F0A09A11DC2B013C011C8605C0E6
:100D4000F1E0FC8729852223A1F007DCDC01CB013F
:100D500084199509A609B70986399105A105B10538
:100D600030F0A29AFADB2B013C01198605C031E074
:100D700039874C81442399F0F0DBDC01CB018419E5
:100D80009509A609B709C297A105B10530F0FEDBA8
:100D9000E4DB2B013C011C8205C081E08C839E8535
:100DA0009923C1F0DADBDC01CB0184199509A6098E
:100DB000B70980329340A105B10550F0EBE0F1E0B6
:100DC000808181608083C9DB2B013C011E8605C0C8
:100DD000F1E0FE872D852223A1F0BFDBDC01CB01F2
:100DE00084199509A609B70986399105A105B105A8
:100DF00030F0A098B2DB2B013C011D8605C031E02C
:100E00003D874A854423C1F0A8DBDC01CB0184196E
:100E10009509A609B7098C329140A105B10550F09A
:100E2000A298F1E0F093DD021092DC021092D7025A
:100E30001A8602C021E02A878091DB02882309F408
:100E4000EEC0809110029091110205970CF0E7C05E
:100E50008091DD02882371F080E7D2D68091100264
:100E6000909111020196909311028093100241DC3F
:100E70001092DD0237E349814303C0011124209120
:100E80001202309113028217930709F0C8C08091B3
:100E9000DA0281114AC2C3C08C85811117C09985BD
:100EA000911128C0EA85E11125C0FD85F11122C00C
:100EB0002F8521111FC03E8531111CC04EDB2B0137
:100EC0003C0104C04C85442309F4EEC246DBDC013E
:100ED000CB0184199509A609B709883C9105A1059C
:100EE000B10530F0A09A39DB2B013C011C8605C00E
:100EF00081E08C8799859923A1F02FDBDC01CB0160
:100F000084199509A609B70986399105A105B10586
:100F100030F0A29A22DB2B013C01198605C0E1E0EA
:100F2000E987FC81FF2399F018DBDC01CB018419F0
:100F30009509A609B709C297A105B10530F026DBCE
:100F40000CDB2B013C011C8205C021E02C833E857B
:100F50003323C1F002DBDC01CB0184199509A6091A
:100F6000B70980329340A105B10550F0EBE0F1E004
:100F7000808181608083F1DA2B013C011E8605C0EF
:100F8000F1E0FE872D852223A1F0E7DADC01CB0119
:100F900084199509A609B70986399105A105B105F6
:100FA00030F0A098DADA2B013C011D8605C031E053
:100FB0003D874A854423A1F0D0DADC01CB018419B6
:100FC0009509A609B709843F9140A105B10530F004
:100FD000A298C3DA2B013C011A8605C0F1E0FA871A
:100FE0002F852223E1F0B9DADC01CB0184199509C0
:100FF000A609B709883E9340A105B10570F080E7C6
:10100000FFD58091100290911102019690931102E8
:10101000809310026EDB1F8602C041E04F878091F3
:10102000E602882309F441C08091190290911A02C6
:1010300005970CF47EC13DC2E9818E2FEE0F990B0E
:101040009C01220F331F820F931F209112023091B7
:101050001302820F931F90931302809312021A01BE
:101060004091120250911302F50156A745A7F1E0F5
:10107000F093000280910E0290910F029A01552385
:1010800024F422273327241B350BAC01992324F4A5
:1010900044275527481B590B2417350734F09093E4
:1010A0001302809312021092E6028091D8028823E4
:1010B00009F441C08091190290911A0205970CF42D
:1010C0004EC139C02981822F220F990B9C01220F1A
:1010D000331F820F931F2091120230911302281B9D
:1010E000390B30931302209312021A01409112021D
:1010F00050911302F50156A745A7F1E0F0930002C5
:1011000080910E0290910F029A01552324F4222718
:101110003327241B350BAC01992324F4442755278E
:10112000481B590B4217530734F0909313028093D6
:1011300012021092D8028091E802882309F466C056
:101140008091190290911A0208970CF01EC15EC09E
:101150002981822F220F990B9C01220F331F820FAE
:10116000931F2091120230911302281B390B3093E8
:101170001302209312021A0180911202909113021D
:10118000F50196A785A7F1E0F0930002809119027E
:1011900090911A0208978CF08091E902882369F0F7
:1011A0008091E402811104C08091E302882329F038
:1011B0008091E202882309F4FEC02091120230914E
:1011C000130249814203C001439F900D11240997E6
:1011D000ECF484E615D51092E7021092E802109222
:1011E00013021092120281E08093E50210921A021B
:1011F000109219021092CA021092CB021092CC02E5
:101200001092CD0246984098212C312CF501808116
:10121000882321F0809100028111D2C080914A027E
:101220008823F9F08091000281111BC0DDC08091FC
:1012300004029091050201969093050280930402A6
:10124000C39734F40CC0109205021092040207C038
:101250001092050210920402F1E0F093DA0210926B
:101260004A02F4018081882321F08091E0028111FB
:1012700000C18091E802811147CB8091E502811184
:101280000DC142CB8091E302882391F02EE1398198
:101290003203C00111249093130280931202109222
:1012A000E5021092E4021092E3021092E2022CCBCB
:1012B0008091E202882309F427CB47E329812403A4
:1012C000C001112490931302809312021092E50240
:1012D0001092E4021092E3021092E20215CB3DD983
:1012E000DC01CB0184199509A609B7098032934026
:1012F000A105B10508F036CC41E04F833FCC81E039
:101300008A8358CC2AD92B013C0127D9DC01CB0197
:1013100084199509A609B70980329340A105B10542
:1013200008F008CDF1E0FC8724CD2C812111CACD35
:10133000B3CD4091CA025091CB026091CC02709122
:10134000CD029A0122193309C901992324F488276F
:101350009927821B930BCC970CF06ECE81CE4091D7
:10136000CA025091CB026091CC027091CD029A01D9
:1013700022193309C901992324F488279927821B4C
:10138000930B88970CF09ECEB1CE4091CA0250913B
:10139000CB026091CC027091CD029A0122193309DF
:1013A000C901992324F488279927821B930BC2979C
:1013B0000CF0CECEE1CE87E623D41092E902FDCE2A
:1013C0006091C2027091C302072E000C880B990B2A
:1013D00030D5AB01BC01C5014ED2F8D484ED92E00A
:1013E000A9D1F50110821ACF80EB92E00E9456013C
:1013F000BC01990F880B990B1CD5AB01BC018AE489
:1014000092E039D2E3D484ED92E094D120910A02A3
:1014100030910B0230930D0220930C024091080290
:101420005091090250930B0240930A02E6E0F2E069
:101430006081718170930902609308028091C602F5
:101440009091C70299231CF4919581959109E6E04A
:10145000F2E091838083860F971F840F951F280FDA
:10146000391F3093030220930202232B09F4DFCEAD
:10147000EACE88EA92E00E94D401BC01990F880B61
:10148000990BD7D4AB01BC01C401F5D19FD485ED34
:1014900092E00E941402F4011082EBCEDDD880911C
:1014A000E4028111F3CEEECEF985FF2309F43CCDA1
:1014B00024CD8091D8023FCE1F920F920FB60F928B
:1014C00011240BB60F922F933F934F935F936F931B
:1014D0007F938F939F93AF93BF93EF93FF9381E09D
:1014E0008093790280934A0280931B0280EB92E002
:1014F0000E947501FF91EF91BF91AF919F918F91E4
:101500007F916F915F914F913F912F910F900BBE03
:101510000F900FBE0F901F9018951F920F920FB64D
:101520000F9211240BB60F922F933F934F935F931B
:101530006F937F938F939F93AF93BF93EF93FF939B
:1015400080EB92E00E941901FF91EF91BF91AF9162
:101550009F918F917F916F915F914F913F912F91CB
:101560000F900BBE0F900FBE0F901F9018957894A0
:101570001F920F920FB60F9211240BB60F928F93FA
:101580009F93EF93FF931092CF021092CE0280911F
:10159000E7028823F9F08091E402811110C0809164
:1015A000E30281110CC016C0EBE0F1E080818E7F78
:1015B000808381E08093E8028093E9020BC08091F0
:1015C000190290911A02019690931A0280931902BF
:1015D000059751F3FF91EF919F918F910F900BBE63
:1015E0000F900FBE0F901F90189578941F920F9236
:1015F0000FB60F9211240BB60F928F939F93EF9318
:10160000FF931092CF021092CE028091E7028823BE
:10161000D9F08091E20281110CC016C0EBE0F1E03C
:1016200080818E7F808381E08093E8028093E9024D
:101630000BC08091190290911A02019690931A02A0
:1016400080931902069751F3FF91EF919F918F912B
:101650000F900BBE0F900FBE0F901F9018951F920A
:101660000F920FB60F9211240BB60F928F939F9388
:10167000EF93FF93019B08C0E8EAF2E0808191813B
:1016800001969183808309C0019907C0E8EAF2E0DE
:1016900080819181019791838083FF91EF919F9148
:1016A0008F910F900BBE0F900FBE0F901F9018954B
:1016B00080EB92E00E94EB0088EA92E00C94CF016C
:1016C0000895E1E0F1E08081806280838081806420
:1016D0008083269AE0E8F0E0808182628083E1E8FE
:1016E000F0E080818A61808389EF90E090938700A9
:1016F000809386000895E2E0F1E08081806280833B
:1017000080818F7B80830895E2E0F1E080818F7D8E
:1017100080838081806480830895E2E0F1E08081AD
:101720008062808380818064808310928B0010921D
:101730008A0008950F931F93CF93DF938C01EB01E1
:101740001C161D060CF4D7DFC93FD10544F4DD2378
:1017500044F4D195C195D109C801D6DF02C0C9EFC3
:10176000D0E0D0938B00C0938A00DF91CF911F917E
:101770000F910895CF93DF93EC01A3DFCE01CDDF6E
:1017800060E070E0CE01D6DFDF91CF9108958F92B7
:101790009F92AF92BF92CF92DF92EF92FF920F9300
:1017A0001F93CF93DF93EC014A015B01680179013C
:1017B0009A01AB01688179818A819B819BD28823C0
:1017C00024F488829982AA82BB82A701960168814B
:1017D00079818A819B81DDD3181624F4C882D9824D
:1017E000EA82FB82DF91CF911F910F91FF90EF90E2
:1017F000DF90CF90BF90AF909F908F900895FC01A5
:101800001182128213821482158216821782108628
:101810001186128613861486118E128E138E148EE4
:10182000158616861786108A15A216A217A210A66C
:1018300011A612A613A614A616A615A681E08083EB
:101840000895CF92DF92EF92FF920F931F93FC01C6
:101850004183528363837483058316832783308790
:10186000C186D286E386F4861F910F91FF90EF9098
:10187000DF90CF9008954F925F926F927F928F92F8
:101880009F92AF92BF92CF92DF92EF92FF920F930F
:101890001F93CF93DF93EC016A017B016DA57EA5B9
:1018A000072E000C880B990BC4D2A7019601BDD15D
:1018B0004B015C01698F7A8F8B8F9C8F2D813E81CC
:1018C0004F8158856AD329A13AA14BA15CA1AED121
:1018D0002B013C0169A37AA38BA39CA329813A81A4
:1018E0004B815C81C501B40158D39B01AC01C3019C
:1018F000B2019CD14B015C012DA13EA14FA158A585
:10190000C701B60192D129853A854B855C8545D3BF
:101910009B01AC01C501B40188D16D8F7E8F8F8F83
:1019200098A309891A892B893C894D895E896F8919
:10193000788DCE014D962BDFCDA2DEA2EFA2F8A6C8
:101940006D8D7E8D8F8D98A1DF91CF911F910F911D
:10195000FF90EF90DF90CF90BF90AF909F908F90CF
:101960007F906F905F904F9008951F920F920FB6E7
:101970000F9211240BB60F922F938F939F93EF9397
:10198000FF938091C0002091C6008871E0917E0392
:10199000EF5FEF7190917D03E91739F0E0937E03DB
:1019A000F0E0EF57FC4F208301C082E080937C037E
:1019B000FF91EF919F918F912F910F900BBE0F9000
:1019C0000FBE0F901F9018951F920F920FB60F9297
:1019D00011240BB60F928F939F93EF93FF939091E7
:1019E000800380917F03981769F0E0917F03EF5F98
:1019F000EF71E0937F03F0E0EF55FC4F808180931F
:101A0000C60005C0E1ECF0E080818F7D8083FF910E
:101A1000EF919F918F910F900BBE0F900FBE0F9083
:101A20001F9018951F920F920FB60F9211240BB6AC
:101A30000F922F938F939F93EF93FF938091D000FA
:101A40002091D6008871E0913903EF5FEF7190919A
:101A50003803E91739F0E0933903F0E0E45CFC4F18
:101A6000208301C082E080933703FF91EF919F9123
:101A70008F912F910F900BBE0F900FBE0F901F9064
:101A800018951F920F920FB60F9211240BB60F925A
:101A90008F939F93EF93FF9390913B0380913A0331
:101AA000981769F0E0913A03EF5FEF71E0933A0322
:101AB000F0E0E45AFC4F80818093D60005C0E1ED50
:101AC000F0E080818F7D8083FF91EF919F918F91D6
:101AD0000F900BBE0F900FBE0F901F9018951F9286
:101AE0000F920FB60F9211240BB60F922F938F9374
:101AF0009F93EF93FF93809130012091360188717D
:101B0000E091F402EF5FEF719091F302E91739F081
:101B1000E093F402F0E0E950FD4F208301C082E041
:101B20008093F202FF91EF919F918F912F910F90EF
:101B30000BBE0F900FBE0F901F9018951F920F9223
:101B40000FB60F9211240BB60F928F939F93EF93C2
:101B5000FF939091F6028091F502981769F0E09159
:101B6000F502EF5FEF71E093F502F0E0E95EFC4F04
:101B700080818093360105C0E1E3F1E080818F7DB3
:101B80008083FF91EF919F918F910F900BBE0F90EB
:101B90000FBE0F901F9018951092F6021092F5024A
:101BA0001092F4021092F302992324F426E0209379
:101BB00030019F77909335018093340188E98093B9
:101BC000310186E08093320108959091F402809172
:101BD000F302981791F0E091F302EF5FEF71E09359
:101BE000F302F0E0E950FD4F20818091F20290E095
:101BF000982F8827820F911D089580E091E0089525
:101C00002091F6022F5F2F719091F5022917E1F3D1
:101C1000E22FF0E0E95EFC4F80832093F602E1E3DF
:101C2000F1E080818062808308955058BB27AA2705
:101C30000ED075C166D130F06BD120F031F49F3FEA
:101C400011F41EF45BC10EF4E095E7FB51C1E92FDE
:101C500077D180F3BA17620773078407950718F0E6
:101C600071F49EF58FC10EF4E0950B2EBA2FA02DC6
:101C70000B01B90190010C01CA01A0011124FF2739
:101C8000591B99F0593F50F4503E68F11A16F04034
:101C9000A22F232F342F4427585FF3CF4695379533
:101CA0002795A795F0405395C9F77EF41F16BA0BF8
:101CB000620B730B840BBAF09150A1F0FF0FBB1FA6
:101CC000661F771F881FC2F70EC0BA0F621F731FEF
:101CD000841F48F4879577956795B795F7959E3F4C
:101CE00008F0B3CF9395880F08F09927EE0F9795DA
:101CF00087950895D9D008F481E008950CD00FC1DC
:101D000007D140F0FED030F021F45F3F19F0F0C071
:101D1000511139C1F3C014D198F39923C9F3552354
:101D2000B1F3951B550BBB27AA27621773078407CE
:101D300038F09F5F5F4F220F331F441FAA1FA9F384
:101D400033D00E2E3AF0E0E830D091505040E69576
:101D5000001CCAF729D0FE2F27D0660F771F881FD7
:101D6000BB1F261737074807AB07B0E809F0BB0BC6
:101D7000802DBF01FF2793585F4F2AF09E3F5105EA
:101D800068F0B6C000C15F3FECF3983EDCF3869587
:101D900077956795B795F7959F5FC9F7880F911D60
:101DA0009695879597F90895E1E0660F771F881F4C
:101DB000BB1F621773078407BA0720F0621B730BFF
:101DC000840BBA0BEE1F88F7E095089504D0689451
:101DD000B111D9C00895BCD088F09F5790F0B92FA9
:101DE0009927B751A0F0D1F0660F771F881F991F70
:101DF0001AF0BA95C9F712C0B13081F0C3D0B1E082
:101E00000895C0C0672F782F8827B85F39F0B93F91
:101E1000CCF3869577956795B395D9F73EF4909571
:101E20008095709561957F4F8F4F9F4F0895E894EF
:101E300009C097FB3EF490958095709561957F4F12
:101E40008F4F9F4F9923A9F0F92F96E9BB279395C0
:101E5000F695879577956795B795F111F8CFFAF4D0
:101E6000BB0F11F460FF1BC06F5F7F4F8F4F9F4F01
:101E700016C0882311F096E911C0772321F09EE85F
:101E8000872F762F05C0662371F096E8862F70E0C5
:101E900060E02AF09A95660F771F881FDAF7880F9F
:101EA0009695879597F90895990F0008550FAA0BF5
:101EB000E0E8FEEF16161706E807F907C0F012165D
:101EC0001306E407F50798F0621B730B840B950B60
:101ED00039F40A2661F0232B242B252B21F40895B5
:101EE0000A2609F4A140A6958FEF811D811D089552
:101EF00097F99F6780E870E060E008959FEF80ECBD
:101F0000089500240A94161617061806090608955F
:101F100000240A9412161306140605060895092EC5
:101F20000394000C11F4882352F0BB0F40F4BF2B34
:101F300011F460FF04C06F5F7F4F8F4F9F4F089574
:101F400057FD9058440F551F59F05F3F71F047956A
:101F5000880F97FB991F61F09F3F79F0879508954F
:101F6000121613061406551FF2CF4695F1DF08C06E
:101F7000161617061806991FF1CF8695710561058B
:101F800008940895E894BB2766277727CB0197F933
:101F900008958ADF08F48FEF08950BD0C0CFB1DF2A
:101FA00028F0B6DF18F0952309F0A2CFA7CF1124AF
:101FB000EACFC6DFA0F3959FD1F3950F50E0551FF0
:101FC000629FF001729FBB27F00DB11D639FAA278E
:101FD000F00DB11DAA1F649F6627B00DA11D661FDD
:101FE000829F2227B00DA11D621F739FB00DA11DFE
:101FF000621F839FA00D611D221F749F3327A00DB8
:10200000611D231F849F600D211D822F762F6A2F53
:1020100011249F5750408AF0E1F088234AF0EE0FD8
:10202000FF1FBB1F661F771F881F91505040A9F7E5
:102030009E3F510570F05CCFA6CF5F3FECF3983E1A
:10204000DCF3869577956795B795F795E7959F5F4C
:10205000C1F7FE2B880F911D9695879597F90895E6
:10206000EE0FFF1F881F8BBF0790F691E02D19948C
:04207000F894FFCF12
:02207400010069
:00000001FF
